:020000040000FA
:06000000B0EF20F0120039
:020006001200E6
:0600080081EF18F0120068
:02000E000000F0
:020010000000EE
:06001800CCEF18F012000D
:02001E000200DE
:100020000E000000C300000004000000A641000014
:08003000600000003200000036
:08003800D9CFE6FFE1CFD9FFAB
:10004000E652FE0EDBCFFEF1939094969488949A3C
:10005000800EE66EE66A020EE66E0EEC20F0E552C9
:10006000E552E5528180DF6A0101FE51DF5C01E368
:100070007AD0010EE66E0C0EE66EDFCFE6FF78D882
:10008000E552E552E552070EE66E0B0EE66EDFCF47
:10009000E6FF6ED8E552E552E5520F0EE66E0A0E07
:1000A000E66EDFCFE6FF64D8E552E552E552E66A38
:1000B000090EE66EDFCFE6FF5BD8E552E552E5526A
:1000C000E66A0F0EE66EDFCFE6FF52D8E552E55244
:1000D000E552E66A010EE66EDFCFE6FF49D8E5524B
:1000E000E552E552E66A020EE66EDFCFE6FF40D843
:1000F000E552E552E552E66A030EE66EDFCFE6FF13
:1001000037D8E552E552E552E66A040EE66EDFCFD7
:10011000E6FF2ED8E552E552E552E66A050EE66E98
:10012000DFCFE6FF25D8E552E552E552E66A060E36
:10013000E66EDFCFE6FF1CD8E552E552E552E66AEF
:10014000070EE66EDFCFE6FF13D8E552E552E55223
:10015000E66A080EE66EDFCFE6FF0AD8E552E55202
:10016000E552DF2A81D7E552E552E7CFD9FF1200E9
:10017000D9CFE6FFE1CFD9FFE6528190DF6AFE0ECC
:10018000DBCFE6FF0101FE05E552D880E754DF5CD6
:100190000AE2E66A66EC20F0E552E66A66EC20F0D8
:1001A000E552DF2AECD7FD0EDBCFE6FF66EC20F050
:1001B000E552FC0EDBCFE6FF66EC20F0E552DF6A8D
:1001C000FE0EDB50DF5C0AE2E66A66EC20F0E552E8
:1001D000E66A66EC20F0E552DF2AF2D78180E5522C
:1001E000E552E7CFD9FF1200D9CFE6FFE1CFD9FF23
:1001F000FD0EDB500F080CE20F0EE66E0A0EE66EE7
:10020000FE0EDBCFE6FFB4DFE552E552E5520CD03F
:10021000FD0EDBCFE6FF0A0EE66EFE0EDBCFE6FF3D
:10022000A7DFE552E552E552E552E7CFD9FF1200CC
:10023000D9CFE6FFE1CFD9FFFC0EDB500F0A01E179
:100240008CD1010A01E17CD1030A01E16CD1010AE0
:1002500001E15CD1070A01E14CD1010A01E13CD185
:10026000030A01E11CD1010A01E1FDD00F0A01E1FD
:10027000DDD0010A01E1BDD0030A01E19DD0010AF0
:1002800001E17DD0070A5EE0010A3FE0030A20E0B9
:10029000010A01E06FD1FB0EDB500DE17E0EE66E30
:1002A000FD0EDBCFE6FFFE0EDBCFE6FF61DFE552A2
:1002B000E552E5520CD0FE0EE66EFD0EDBCFE6FFFA
:1002C000FE0EDBCFE6FF54DFE552E552E55252D198
:1002D000FB0EDB500DE1300EE66EFD0EDBCFE6FFD0
:1002E000FE0EDBCFE6FF44DFE552E552E5520CD0CF
:1002F000B00EE66EFD0EDBCFE6FFFE0EDBCFE6FFB7
:1003000037DFE552E552E55235D1FB0EDB500DE10A
:100310006D0EE66EFD0EDBCFE6FFFE0EDBCFE6FFD9
:1003200027DFE552E552E5520CD0ED0EE66EFD0EEC
:10033000DBCFE6FFFE0EDBCFE6FF1ADFE552E5522C
:10034000E55218D1FB0EDB500DE1790EE66EFD0E85
:10035000DBCFE6FFFE0EDBCFE6FF0ADFE552E5521C
:10036000E5520CD0F90EE66EFD0EDBCFE6FFFE0E79
:10037000DBCFE6FFFDDEE552E552E552FBD0FB0E9A
:10038000DB500DE1330EE66EFD0EDBCFE6FFFE0E19
:10039000DBCFE6FFEDDEE552E552E5520CD0B30EC1
:1003A000E66EFD0EDBCFE6FFFE0EDBCFE6FFE0DE06
:1003B000E552E552E552DED0FB0EDB500DE15B0E5F
:1003C000E66EFD0EDBCFE6FFFE0EDBCFE6FFD0DEF6
:1003D000E552E552E5520CD0DB0EE66EFD0EDBCFAA
:1003E000E6FFFE0EDBCFE6FFC3DEE552E552E55247
:1003F000C1D0FB0EDB500DE15F0EE66EFD0EDBCFD4
:10040000E6FFFE0EDBCFE6FFB3DEE552E552E55236
:100410000CD0DF0EE66EFD0EDBCFE6FFFE0EDBCF6F
:10042000E6FFA6DEE552E552E552A4D0FB0EDB5016
:100430000DE1700EE66EFD0EDBCFE6FFFE0EDBCFAC
:10044000E6FF96DEE552E552E5520CD0F00EE66E80
:10045000FD0EDBCFE6FFFE0EDBCFE6FF89DEE552C9
:10046000E552E55287D0FB0EDB500DE17F0EE66EC4
:10047000FD0EDBCFE6FFFE0EDBCFE6FF79DEE552B9
:10048000E552E5520BD0E668FD0EDBCFE6FFFE0E2F
:10049000DBCFE6FF6DDEE552E552E5526BD0FB0E99
:1004A000DB500DE17B0EE66EFD0EDBCFE6FFFE0EB0
:1004B000DBCFE6FF5DDEE552E552E5520CD0FB0EE8
:1004C000E66EFD0EDBCFE6FFFE0EDBCFE6FF50DE75
:1004D000E552E552E5524ED0770EE66EFD0EDBCFCB
:1004E000E6FFFE0EDBCFE6FF43DEE552E552E552C6
:1004F00041D01F0EE66EFD0EDBCFE6FFFE0EDBCF1A
:10050000E6FF36DEE552E552E55234D04E0EE66E99
:10051000FD0EDBCFE6FFFE0EDBCFE6FF29DEE55268
:10052000E552E55227D03D0EE66EFD0EDBCFE6FF2D
:10053000FE0EDBCFE6FF1CDEE552E552E5521AD097
:100540004F0EE66EFD0EDBCFE6FFFE0EDBCFE6FFC5
:100550000FDEE552E552E5520DD0470EE66EFD0E78
:10056000DBCFE6FFFE0EDBCFE6FF02DEE552E55213
:10057000E55200D0E552E7CFD9FF1200D9CFE6FF10
:10058000E1CFD9FF050EE126FA0EDBCF1EF0FB0E00
:10059000DBCF1FF0020E1EC0DBFF030E1FC0DBFF10
:1005A000FC0EDBCFE6FFFD0EDB50E552E75C010FF2
:1005B000E76E040EE7CFDBFF020EDBCF00F0030E89
:1005C000DBCF01F00001800E01141EE01E681F68E1
:1005D000020EDBCF23F0030EDBCF24F004EC1EF081
:1005E000020E1CC0DBFF030E1DC0DBFF040EDB068A
:1005F000010EE66EFC0EDB28E66EFE0EDBCFE6FF9C
:10060000B7DDE552E552E552020EDBCF00F0030EF6
:10061000DBCF01F0026A036A01AE02D00268036810
:10062000040EDBCFE9FFEA6AE9BEEA68D890E93652
:10063000EA36D890E936EA36600EE926000EEA225C
:10064000EE50005CEE500158EE500258EE50035848
:1006500033E3FD0EDB50DE6EDD6ADECF00F0DDCF72
:1006600001F0040EDBCFE6FFFD0EDB50E552E72480
:10067000FF0F026E036A03500118E8AE02D0013486
:1006800004D00050025C0150035815E3800EE66E62
:10069000DECF00F0DDCF01F0010E0024E66EFE0E8D
:1006A000DBCFE6FF65DDE552E552E552DF2A010EBC
:1006B00001E3DB2AD2D7A9D0FD0EDB50DE6EDD6A66
:1006C000DECF00F0DDCF01F0040EDBCFE6FFFD0E44
:1006D000DB50E552E724FF0F026E036A0350011856
:1006E000E8AE02D0013404D00050025C015003583F
:1006F00001E28BD0E66AFD0EDB50126E136A1250D7
:10070000DE5CE96E1350DD58EA6ED890E936EA36C1
:10071000D890E936EA36600EE926000EEA22EECFDE
:100720000EF0EECF0FF0EECF10F0EFCF11F0FD0E88
:10073000DB500C6E0D6A0C50DE5CE96E0D50DD581E
:10074000EA6E010EE926000EEA22D890E936EA3672
:10075000D890E936EA36600EE926000EEA22EECF9E
:1007600008F0EECF09F0EECF0AF0EFCF0BF0020E5B
:10077000DBCF04F0030EDBCF05F0066A076A05AE97
:1007800002D00668076804C01CF005C01DF006C052
:100790001EF007C01FF008C021F009C022F00AC0F7
:1007A00023F00BC024F042EC20F018C000F019C078
:1007B00001F01AC002F01BC003F000C01CF001C021
:1007C0001DF002C01EF003C01FF00EC021F00FC0CC
:1007D00022F010C023F011C024F042EC20F01C5095
:1007E000E66EDECF14F0DDCF15F0010E1424E66EB8
:1007F000FE0EDBCFE6FF1CDDE552E552E552E55289
:10080000DF2A010E01E3DB2A5BD7050EE15C02E281
:10081000E16AE552E16EE552E7CFD9FF1200D9CF88
:10082000E6FFE1CFD9FFE652FE0EDB50DF6EDF5070
:10083000100821E2E668050EE66EE66A99DCE552EC
:10084000E552E552E668060EE66EE66A91DCE55290
:10085000E552E552100EDF5CEA6A800FE96E000E89
:10086000EA22EF50E66E070EE66EE66A81DCE5529C
:10087000E552E55243D0DF50080821E2E668050E54
:10088000E66EE66A75DCE552E552E552080EDF5C7D
:10089000EA6A800FE96E000EEA22EF50E66E060E5D
:1008A000E66EE66A65DCE552E552E552E66A070E59
:1008B000E66EE66A5DDCE552E552E5521FD0DF5098
:1008C000EA6A800FE96E000EEA22EF50E66E050E2E
:1008D000E66EE66A4DDCE552E552E552E66A060E42
:1008E000E66EE66A45DCE552E552E552E66A070E39
:1008F000E66EE66A3DDCE552E552E552E552E55228
:10090000E7CFD9FF1200D9CFE6FFE1CFD9FFE652FA
:10091000FE0EDB50DF6EDF50100822E2100EDF5CAF
:10092000EA6A890FE96E000EEA22EF50E66E050EC4
:10093000E66EE66A1DDCE552E552E552E668060E13
:10094000E66EE66A15DCE552E552E552E668070E0A
:10095000E66EE66AB8EC00F0E552E552E55249D0A1
:10096000DF50080824E2E66A050EE66EE66AB8EC97
:1009700000F0E552E552E552080EDF5CEA6A890FA5
:10098000E96E000EEA22EF50E66E060EE66EE66AAB
:10099000B8EC00F0E552E552E552E668070EE66E67
:1009A000E66AB8EC00F0E552E552E55222D0E66A7C
:1009B000050EE66EE66AB8EC00F0E552E552E55247
:1009C000E66A060EE66EE66AB8EC00F0E552E5521D
:1009D000E552DF50EA6A890FE96E000EEA22EF5015
:1009E000E66E070EE66EE66AB8EC00F0E552E552F8
:1009F000E552E552E552E7CFD9FF1200400EE66E10
:100A0000010EE66EE66AB8EC00F0E552E552E552FA
:100A1000400EE66E020EE66EE66AB8EC00F0E552B5
:100A2000E552E552400EE66E030EE66EE66AB8EC5D
:100A300000F0E552E552E552400EE66E040EE66E19
:100A4000E66AB8EC00F0E552E552E552400EE66E7B
:100A5000010EE66EE66EB8EC00F0E552E552E552A6
:100A6000400EE66E020EE66E010EE66EB8EC00F089
:100A7000E552E552E552400EE66E030EE66E010EBB
:100A8000E66EB8EC00F0E552E552E552400EE66E37
:100A9000040EE66E010EE66EB8EC00F0E552E5528B
:100AA000E552400EE66E050EE66E010EE66EB8ECFF
:100AB00000F0E552E552E552E668050EE66EE66A9C
:100AC000B8EC00F0E552E552E552E668060EE66E37
:100AD000E66AB8EC00F0E552E552E552E668070E2A
:100AE000E66EE66AB8EC00F0E552E552E552400EDB
:100AF000E66E060EE66E010EE66EB8EC00F0E5520C
:100B0000E552E552320EE66E83EC20F0E552200EFF
:100B1000E66E010EE66EE66AB8EC00F0E552E552CC
:100B2000E552200EE66E020EE66EE66AB8EC00F0C4
:100B3000E552E552E552200EE66E030EE66EE66AD9
:100B4000B8EC00F0E552E552E552200EE66E040ED8
:100B5000E66EE66AB8EC00F0E552E552E552200E8A
:100B6000E66E010EE66EE66EB8EC00F0E552E55278
:100B7000E552200EE66E020EE66E010EE66EB8EC51
:100B800000F0E552E552E552200EE66E030EE66EE9
:100B9000010EE66EB8EC00F0E552E552E552200E8B
:100BA000E66E040EE66E010EE66EB8EC00F0E5525D
:100BB000E552E552200EE66E050EE66E010EE66E7B
:100BC000B8EC00F0E552E552E552F30EE66E060E83
:100BD000E66EE66AB8EC00F0E552E552E552320EF8
:100BE000E66E83EC20F0E552100EE66E010EE66E26
:100BF000E66AB8EC00F0E552E552E552100EE66EFA
:100C0000020EE66EE66AB8EC00F0E552E552E552F7
:100C1000100EE66E030EE66EE66AB8EC00F0E552E2
:100C2000E552E552100EE66E040EE66EE66AB8EC8A
:100C300000F0E552E552E552100EE66E010EE66E4A
:100C4000E66EB8EC00F0E552E552E552100EE66EA5
:100C5000020EE66E010EE66EB8EC00F0E552E552CB
:100C6000E552100EE66E030EE66E010EE66EB8EC6F
:100C700000F0E552E552E552100EE66E040EE66E07
:100C8000010EE66EB8EC00F0E552E552E552100EAA
:100C9000E66E050EE66E010EE66EB8EC00F0E5526B
:100CA000E552E552E10EE66E060EE66EE66AB8EC37
:100CB00000F0E552E552E552200EE66E060EE66EB5
:100CC000010EE66EB8EC00F0E552E552E552320E48
:100CD000E66E83EC20F0E552080EE66E010EE66E3D
:100CE000E66AB8EC00F0E552E552E552080EE66E11
:100CF000020EE66EE66AB8EC00F0E552E552E55207
:100D0000080EE66E030EE66EE66AB8EC00F0E552F9
:100D1000E552E552080EE66E040EE66EE66AB8ECA1
:100D200000F0E552E552E552080EE66E010EE66E61
:100D3000E66EB8EC00F0E552E552E552080EE66EBC
:100D4000020EE66E010EE66EB8EC00F0E552E552DA
:100D5000E552080EE66E030EE66E010EE66EB8EC86
:100D600000F0E552E552E552080EE66E040EE66E1E
:100D7000010EE66EB8EC00F0E552E552E552080EC1
:100D8000E66E050EE66E010EE66EB8EC00F0E5527A
:100D9000E552E552C00EE66E060EE66EE66AB8EC67
:100DA00000F0E552E552E552320EE66E83EC20F09B
:100DB000E552040EE66E010EE66EE66AB8EC00F04F
:100DC000E552E552E552040EE66E020EE66EE66A64
:100DD000B8EC00F0E552E552E552040EE66E030E63
:100DE000E66EE66AB8EC00F0E552E552E552040E14
:100DF000E66EE66EE66AB8EC00F0E552E552E552C2
:100E0000040EE66E010EE66EE66EB8EC00F0E552FA
:100E1000E552E552040EE66E020EE66E010EE66E37
:100E2000B8EC00F0E552E552E552040EE66E030E12
:100E3000E66E010EE66EB8EC00F0E552E552E552C2
:100E4000040EE66EE66E010EE66EB8EC00F0E552BA
:100E5000E552E552040EE66E050EE66E010EE66EF4
:100E6000B8EC00F0E552E552E552E66A060EE66E91
:100E7000E66AB8EC00F0E552E552E552100EE66E77
:100E8000060EE66E010EE66EB8EC00F0E552E55295
:100E9000E552320EE66E83EC20F0E552020EE66E6D
:100EA000010EE66EE66AB8EC00F0E552E552E55256
:100EB000020EE66EE66EE66AB8EC00F0E552E55228
:100EC000E552020EE66E030EE66EE66AB8EC00F03E
:100ED000E552E552E552020EE66E040EE66EE66A53
:100EE000B8EC00F0E552E552E552020EE66E010E56
:100EF000E66EE66EB8EC00F0E552E552E552020E01
:100F0000E66EE66E010EE66EB8EC00F0E552E552D4
:100F1000E552020EE66E030EE66E010EE66EB8ECCA
:100F200000F0E552E552E552020EE66E040EE66E62
:100F3000010EE66EB8EC00F0E552E552E552020E05
:100F4000E66E050EE66E010EE66EB8EC00F0E552B8
:100F5000E552E5527F0EE66E050EE66EE66AB8ECE7
:100F600000F0E552E552E552BF0EE66E070EE66E62
:100F7000E66AB8EC00F0E552E552E552320EE66E54
:100F800083EC20F0E552400EE66E010EE66EE66A56
:100F9000B8EC00F0E552E552E552400EE66E020E66
:100FA000E66EE66AB8EC00F0E552E552E552400E16
:100FB000E66E030EE66EE66AB8EC00F0E552E55226
:100FC000E552400EE66E040EE66EE66AB8EC00F0FE
:100FD000E552E552E552400EE66E010EE66EE66E13
:100FE000B8EC00F0E552E552E552400EE66E020E16
:100FF000E66E010EE66EB8EC00F0E552E552E55201
:10100000400EE66E030EE66E010EE66EB8EC00F0E2
:10101000E552E552E552400EE66E040EE66E010E14
:10102000E66EB8EC00F0E552E552E552400EE66E91
:10103000050EE66E010EE66EB8EC00F0E552E552E4
:10104000E5527E0EE66E050EE66EE66AB8EC00F03E
:10105000E552E552E5529F0EE66E070EE66EE66A31
:10106000B8EC00F0E552E552E552080EE66E060EC9
:10107000E66E010EE66EB8EC00F0E552E552E55280
:10108000320EE66E83EC20F0E552200EE66E010E85
:10109000E66EE66AB8EC00F0E552E552E552200E45
:1010A000E66E020EE66EE66AB8EC00F0E552E55236
:1010B000E552200EE66E030EE66EE66AB8EC00F02E
:1010C000E552E552E552200EE66E040EE66EE66A43
:1010D000B8EC00F0E552E552E552200EE66E010E46
:1010E000E66EE66EB8EC00F0E552E552E552200EF1
:1010F000E66E020EE66E010EE66EB8EC00F0E5520A
:10110000E552E552200EE66E030EE66E010EE66E27
:10111000B8EC00F0E552E552E552200EE66E040E02
:10112000E66E010EE66EB8EC00F0E552E552E552CF
:10113000200EE66E050EE66E010EE66EB8EC00F0CF
:10114000E552E552E5527C0EE66E050EE66EE66A65
:10115000B8EC00F0E552E552E5528F0EE66E070E50
:10116000E66EE66AB8EC00F0E552E552E552320E62
:10117000E66E83EC20F0E552100EE66E010EE66E90
:10118000E66AB8EC00F0E552E552E552100EE66E64
:10119000020EE66EE66AB8EC00F0E552E552E55262
:1011A000100EE66E030EE66EE66AB8EC00F0E5524D
:1011B000E552E552100EE66E040EE66EE66AB8ECF5
:1011C00000F0E552E552E552100EE66E010EE66EB5
:1011D000E66EB8EC00F0E552E552E552100EE66E10
:1011E000020EE66E010EE66EB8EC00F0E552E55236
:1011F000E552100EE66E030EE66E010EE66EB8ECDA
:1012000000F0E552E552E552100EE66E040EE66E71
:10121000010EE66EB8EC00F0E552E552E552100E14
:10122000E66E050EE66E010EE66EB8EC00F0E552D5
:10123000E552E552780EE66E050EE66EE66AB8EC0B
:1012400000F0E552E552E552870EE66E070EE66EB7
:10125000E66AB8EC00F0E552E552E552040EE66E9F
:10126000060EE66E010EE66EB8EC00F0E552E552B1
:10127000E552320EE66E83EC20F0E552080EE66E83
:10128000010EE66EE66AB8EC00F0E552E552E55272
:10129000080EE66E020EE66EE66AB8EC00F0E55265
:1012A000E552E552080EE66E030EE66EE66AB8EC0D
:1012B00000F0E552E552E552080EE66E040EE66EC9
:1012C000E66AB8EC00F0E552E552E552080EE66E2B
:1012D000010EE66EE66EB8EC00F0E552E552E5521E
:1012E000080EE66E020EE66E010EE66EB8EC00F039
:1012F000E552E552E552080EE66E030EE66E010E6B
:10130000E66EB8EC00F0E552E552E552080EE66EE6
:10131000040EE66E010EE66EB8EC00F0E552E55202
:10132000E552080EE66E050EE66E010EE66EB8ECAE
:1013300000F0E552E552E552700EE66E050EE66EDF
:10134000E66AB8EC00F0E552E552E552830EE66E2F
:10135000070EE66EE66AB8EC00F0E552E552E5529B
:10136000320EE66E83EC20F0E552040EE66E010EBE
:10137000E66EE66AB8EC00F0E552E552E552040E7E
:10138000E66E020EE66EE66AB8EC00F0E552E55253
:10139000E552040EE66E030EE66EE66AB8EC00F067
:1013A000E552E552E552040EE66EE66EE66AB8ECEA
:1013B00000F0E552E552E552040EE66E010EE66ECF
:1013C000E66EB8EC00F0E552E552E552040EE66E2A
:1013D000020EE66E010EE66EB8EC00F0E552E55244
:1013E000E552040EE66E030EE66E010EE66EB8ECF4
:1013F00000F0E552E552E552040EE66EE66E010E8F
:10140000E66EB8EC00F0E552E552E552040EE66EE9
:10141000050EE66E010EE66EB8EC00F0E552E55200
:10142000E552600EE66E050EE66EE66AB8EC00F078
:10143000E552E552E552810EE66E070EE66EE66A6B
:10144000B8EC00F0E552E552E552020EE66E060EEB
:10145000E66E010EE66EB8EC00F0E552E552E5529C
:10146000320EE66E83EC20F0E552020EE66E010EBF
:10147000E66EE66AB8EC00F0E552E552E552020E7F
:10148000E66EE66EE66AB8EC00F0E552E552E5522B
:10149000020EE66E030EE66EE66AB8EC00F0E55268
:1014A000E552E552020EE66E040EE66EE66AB8EC10
:1014B00000F0E552E552E552020EE66E010EE66ED0
:1014C000E66EB8EC00F0E552E552E552020EE66E2B
:1014D000E66E010EE66EB8EC00F0E552E552E5521C
:1014E000020EE66E030EE66E010EE66EB8EC00F03C
:1014F000E552E552E552020EE66E040EE66E010E6E
:10150000E66EB8EC00F0E552E552E552020EE66EEA
:10151000050EE66E010EE66EB8EC00F0E552E552FF
:10152000E552400EE66E050EE66EE66AB8EC00F097
:10153000E552E552E552800EE66E070EE66EE66A6B
:10154000B8EC00F0E552E552E552320EE66E83EC5F
:1015500020F0E552400EE66E010EE66EE66AB8EC4B
:1015600000F0E552E552E552400EE66E020EE66EE0
:10157000E66AB8EC00F0E552E552E552400EE66E40
:10158000030EE66EE66AB8EC00F0E552E552E5526D
:10159000400EE66E040EE66EE66AB8EC00F0E55228
:1015A000E552E552400EE66E010EE66EE66EB8ECD0
:1015B00000F0E552E552E552400EE66E020EE66E90
:1015C000010EE66EB8EC00F0E552E552E552400E31
:1015D000E66E030EE66E010EE66EB8EC00F0E55224
:1015E000E552E552400EE66E040EE66E010EE66E22
:1015F000B8EC00F0E552E552E552400EE66E050EFD
:10160000E66E010EE66EB8EC00F0E552E552E552EA
:10161000010EE66E060EE66E010EE66EB8EC00F008
:10162000E552E552E552E66A050EE66EE66AB8EC6A
:1016300000F0E552E552E552E66A070EE66EE66A0C
:10164000B8EC00F0E552E552E552320EE66E83EC5E
:1016500020F0E552E668010EE66EE66AB8EC00F0AE
:10166000E552E552E552E668020EE66EE66AB8EC2F
:1016700000F0E552E552E552E668030EE66EE66AD2
:10168000B8EC00F0E552E552E552E668040EE66E6D
:10169000E66AB8EC00F0E552E552E552E668010E64
:1016A000E66EE66EB8EC00F0E552E552E552E6680B
:1016B000020EE66E010EE66EB8EC00F0E552E55261
:1016C000E552E668030EE66E010EE66EB8EC00F039
:1016D000E552E552E552E668040EE66E010EE66E4E
:1016E000B8EC00F0E552E552E552E668050EE66E0C
:1016F000010EE66EB8EC00F0E552E552E552E66800
:10170000050EE66EE66AB8EC00F0E552E552E552E9
:10171000E668060EE66EE66AB8EC00F0E552E552C1
:10172000E552E668070EE66EE66AB8EC00F0E552B0
:10173000E552E552E668060EE66E010EE66EB8EC7E
:1017400000F0E552E552E552E66A83EC20F0E552FE
:10175000E66A83EC20F0E552E66A010EE66EE66A80
:10176000B8EC00F0E552E552E552E66A020EE66E8C
:10177000E66AB8EC00F0E552E552E552E66A030E7F
:10178000E66EE66AB8EC00F0E552E552E552E66A2C
:10179000040EE66EE66AB8EC00F0E552E552E5525A
:1017A000E66A050EE66EE66AB8EC00F0E552E55230
:1017B000E552E66A060EE66EE66AB8EC00F0E5521F
:1017C000E552E552E66A070EE66EE66AB8EC00F00E
:1017D000E552E552E552E66A010EE66EE66EB8ECB9
:1017E00000F0E552E552E552E66A020EE66E010EA1
:1017F000E66EB8EC00F0E552E552E552E66A030EFB
:10180000E66E010EE66EB8EC00F0E552E552E552E8
:10181000E66A040EE66E010EE66EB8EC00F0E552E4
:10182000E552E552E66A050EE66E010EE66EB8EC8C
:1018300000F0E552E552E552E66A060EE66E010E4C
:0E184000E66EB8EC00F0E552E552E5521200FB
:02184E00D9CFF0
:10185000E6FFE1CFD9FFE652000192B11DD0FE0EA6
:10186000DBCFE6FFF8EC1EF0E552320EE66EBEEC82
:1018700020F0E55200019251200B0EE19251100B25
:101880000BE19251080B08E1D9CFE6FFDACFE6FF72
:1018900029EC1FF0E552E552E552E552E7CFD9FFBA
:1018A0001200D9CFE6FFE1CFD9FF040EE126010EE9
:1018B000DB6A020EDB6A030EDB6A0D0EE66EC7DF23
:1018C000E5520A0EE66EC3DFE552320EE66EBEEC5E
:1018D00020F0E55200019251200B14E19251100BBF
:1018E00011E19251080B0EE1D9CFE6FFDACFE6FF06
:1018F00029EC1FF0E552E552320EE66EBEEC20F008
:10190000E552E8D7FD0EDBCF00F0FE0EDBCF01F095
:10191000080E0F0B05E0D89001320032E806FBE11B
:10192000090ED8800054000E015414E2FD0EDBCFE6
:1019300000F0FE0EDBCF01F0080E0F0B05E0D89093
:1019400001320032E806FBE1370E0024E66E7FDF4D
:10195000E55213D0FD0EDBCF00F0FE0EDBCF01F021
:10196000080E0F0B05E0D89001320032E806FBE1CB
:10197000300E0024E66E6BDFE552FD0EDBCF02F089
:10198000FE0EDBCF03F0080E0F0B05E0D8900332FC
:101990000232E806FBE102C003F0026AFD0EDBCF73
:1019A0001EF0FE0EDBCF1FF002501E5C006E0350D7
:1019B0001F58016EFD0E00C0DBFFFE0E01C0DBFFF5
:1019C000FD0EDBCF00F0FE0EDBCF01F0040E0F0B9F
:1019D00005E0D89001320032E806FBE1090ED8801C
:1019E0000054000E015414E2FD0EDBCF00F0FE0E99
:1019F000DBCF01F0040E0F0B05E0D890013200326E
:101A0000E806FBE1370E0024E66E21DFE55213D035
:101A1000FD0EDBCF00F0FE0EDBCF01F0040E0F0B4E
:101A200005E0D89001320032E806FBE1300E0024D8
:101A3000E66E0DDFE552FD0EDBCF02F0FE0EDBCFD2
:101A400003F0040E0F0B05E0D89003320232E806D3
:101A5000FBE1040ED89002360336E806FBE1FD0EEA
:101A6000DBCF1EF0FE0EDBCF1FF002501E5C006EBF
:101A700003501F58016EFD0E00C0DBFFFE0E01C0BB
:101A8000DBFFD950FD0FE96EFF0EDA20EA6E090E7A
:101A9000D880EE54000EED540CE2FD0EDBCF00F0CA
:101AA000FE0EDBCF01F0370E0024E66ED0DEE552ED
:101AB0000BD0FD0EDBCF00F0FE0EDBCF01F0300EC1
:101AC0000024E66EC4DEE552100EF36EFC0EDBCF92
:101AD000F4FFF350F45C15E22E0EE66EB8DEE5522C
:101AE000FC0EDB50090807E2FC0EDB50370FE66EF8
:101AF000AEDEE55206D0FC0EDB50300FE66EA7DE00
:101B0000E5523F0EE66EA3DEE5520D0EE66E9FDE59
:101B1000E5520A0EE66E9BDEE552320EE66EBEEC34
:101B200020F0E55200019251200B3FE19251100B41
:101B30003CE19251080B39E1DF6AD9CFE6FFDACFF9
:101B4000E6FF29EC1FF0E552E552300EDF5C1FE3A3
:101B5000DF5039081CE3300EDF5C026E036A0A0EA8
:101B60001E6E1F6A010EDBCF23F0020EDBCF24F0C6
:101B700004EC1EF01C500224006E1D500320016E68
:101B8000010E00C0DBFF020E01C0DBFF08D02D0EEE
:101B9000DF5C05E1010EF36E030EF3CFDBFF320EC7
:101BA000E66EBEEC20F0E552BDD7030EDB0410E17B
:101BB0001E681F68010EDBCF23F0020EDBCF24F07E
:101BC00004EC1EF0DE521CC0DEFF1DC0DDFFDD5246
:101BD000010EDBCF00F0020EDBCF01F000C0F3FFFF
:101BE00001C0F4FF040EE15C03E200D0E16AE552BB
:101BF000E16EE552E7CFD9FF1200E668E66A010E12
:101C0000E66E4FDEE552E552E55200D01200D9CF24
:101C1000E6FFE1CFD9FF020EE126EFDFF3CFDEFFD3
:101C2000F4CFDDFFDECF00F0DDCF01F00001800E4C
:101C300001142FE1480E006E6D0E016E620E026EF1
:101C40003D0E036E000EDFCF1EF0010EDBCF1FF046
:101C50000BEC1DF01DC004F01EC005F01FC006F007
:101C600020C007F004C022F005C023F006C024F015
:101C700007C025F000C01DF001C01EF002C01FF01B
:101C800003C020F071EC1DF031EC1EF01F5035D078
:101C900034D0480E006E6D0E016E620E026E3D0E67
:101CA000036EDECF08F0DDCF09F0000E086C091ED0
:101CB000092208C01EF009C01FF00BEC1DF01DC06A
:101CC00004F01EC005F01FC006F020C007F004C0DD
:101CD00022F005C023F006C024F007C025F000C0A4
:101CE0001DF001C01EF002C01FF003C020F071EC17
:101CF0001DF031EC1EF01F5000D0006E020EE15CB2
:101D000002E2E16AE552E16E0050E552E7CFD9FF09
:101D10001200D9CFE6FFE1CFD9FFE6520D0EE66EF5
:101D200096DDE5520A0EE66E92DDE552320EE66E63
:101D3000BEEC20F0E55200019251200B14E19251CB
:101D4000100B11E19251080B0EE1D9CFE6FFDACF6B
:101D5000E6FF29EC1FF0E552E552320EE66EBEECCE
:101D600020F0E552E8D7FD0EDBCF00F0FE0EDBCF12
:101D700001F0080E0F0B05E0D89001320032E806A2
:101D8000FBE1090ED8800054000E015414E2FD0E50
:101D9000DBCF00F0FE0EDBCF01F0080E0F0B05E0ED
:101DA000D89001320032E806FBE1370E0024E66EDF
:101DB0004EDDE55213D0FD0EDBCF00F0FE0EDBCF83
:101DC00001F0080E0F0B05E0D89001320032E80652
:101DD000FBE1300E0024E66E3ADDE552FD0EDBCF6E
:101DE00000F0FE0EDBCF01F0080E0F0B05E0D890DF
:101DF00001320032E806FBE100C001F0006AD95070
:101E0000FD0FE96EFF0EDA20EA6E0050EE5E015023
:101E1000ED5AFD0EDBCF00F0FE0EDBCF01F0040E1D
:101E20000F0B05E0D89001320032E806FBE1090E05
:101E3000D8800054000E015414E2FD0EDBCF00F0F8
:101E4000FE0EDBCF01F0040E0F0B05E0D89001323F
:101E50000032E806FBE1370E0024E66EF8DCE552BE
:101E600013D0FD0EDBCF00F0FE0EDBCF01F0040E31
:101E70000F0B05E0D89001320032E806FBE1300E8E
:101E80000024E66EE4DCE552FD0EDBCF00F0FE0E32
:101E9000DBCF01F0040E0F0B05E0D89001320032C9
:101EA000E806FBE1040ED89000360136E806FBE1B7
:101EB000D950FD0FE96EFF0EDA20EA6E0050EE5E9B
:101EC0000150ED5AD950FD0FE96EFF0EDA20EA6E8F
:101ED000090ED880EE54000EED540CE2FD0EDBCF5F
:101EE00000F0FE0EDBCF01F0370E0024E66EAFDC13
:101EF000E5520BD0FD0EDBCF00F0FE0EDBCF01F084
:101F0000300E0024E66EA3DCE552210EE66E9FDC67
:101F1000E5520D0EE66E9BDCE5520A0EE66E97DC8E
:101F2000E552320EE66EBEEC20F0E5520001925111
:101F3000200B15E19251100B12E19251080B0FE1A9
:101F4000DF6AD9CFE6FFDACFE6FF29EC1FF0E552D2
:101F5000E552320EE66EBEEC20F0E552E7D7E552D0
:101F6000E552E7CFD9FF1200D9CFE6FFE1CFD9FF85
:101F7000E6520D0EE66E6BDCE5520A0EE66E67DC8D
:101F8000E552320EE66EBEEC20F0E55200019251B1
:101F9000200B14E19251100B11E19251080B0EE14C
:101FA000D9CFE6FFDACFE6FF29EC1FF0E552E55284
:101FB000320EE66EBEEC20F0E552E8D7FD0EDBCF28
:101FC00000F0FE0EDBCF01F0080E0F0B05E0D890FD
:101FD00001320032E806FBE1090ED8800054000E01
:101FE000015414E2FD0EDBCF00F0FE0EDBCF01F05A
:101FF000080E0F0B05E0D89001320032E806FBE135
:10200000370E0024E66E23DCE55213D0FD0EDBCF45
:1020100000F0FE0EDBCF01F0080E0F0B05E0D890AC
:1020200001320032E806FBE1300E0024E66E0FDCE0
:10203000E552FD0EDBCF02F0FE0EDBCF03F0080E03
:102040000F0B05E0D89003320232E806FBE102C034
:1020500003F0026AFD0EDBCF1EF0FE0EDBCF1FF099
:1020600002501E5C006E03501F58016EFD0E00C032
:10207000DBFFFE0E01C0DBFFFD0EDBCF00F0FE0E2E
:10208000DBCF01F0040E0F0B05E0D89001320032D7
:10209000E806FBE1090ED8800054000E015415E259
:1020A000FD0EDBCF00F0FE0EDBCF01F0040E0F0BB8
:1020B00005E0D89001320032E806FBE1370E00243B
:1020C000E66E27EC0CF0E55214D0FD0EDBCF00F0ED
:1020D000FE0EDBCF01F0040E0F0B05E0D8900132AD
:1020E0000032E806FBE1300E0024E66E27EC0CF02F
:1020F000E552FD0EDBCF02F0FE0EDBCF03F0040E47
:102100000F0B05E0D89003320232E806FBE1040E23
:10211000D89002360336E806FBE1FD0EDBCF1EF059
:10212000FE0EDBCF1FF002501E5C006E03501F58E6
:10213000016EFD0E00C0DBFFFE0E01C0DBFFD950BB
:10214000FD0FE96EFF0EDA20EA6E090ED880EE541C
:10215000000EED540DE2FD0EDBCF00F0FE0EDBCFE6
:1021600001F0370E0024E66E27EC0CF0E5520CD09F
:10217000FD0EDBCF00F0FE0EDBCF01F0300E0024B1
:10218000E66E27EC0CF0E552100EF36EFC0EDBCF82
:10219000F4FFF350F45C18E22E0EE66E27EC0CF020
:1021A000E552FC0EDB50090808E2FC0EDB50370F4D
:1021B000E66E27EC0CF0E55207D0FC0EDB50300F3A
:1021C000E66E27EC0CF0E5523D0EE66E27EC0CF0C7
:1021D000E552FA0EDBCF00F0FB0EDBCF01F0000181
:1021E000800E011405E02D0EE66E27EC0CF0E55292
:1021F000FA0EDBCF00F0FB0EDBCF01F0100E236EEA
:10220000270E246E00C01EF001C01FF0DEEC1DF092
:102210001EC000F01FC001F00050011001E1A9D064
:10222000FA0EDBCF00F0FB0EDBCF01F0100E236EB9
:10223000270E246E00C01EF001C01FF0DEEC1DF062
:102240001EC000F01FC001F0300E0024E66E27EC27
:102250000CF0E552FA0EDBCF00F0FB0EDBCF01F005
:10226000100E236E270E246E00C01EF001C01FF05A
:10227000DEEC1DF01AC000F01BC001F0E80E236E6A
:10228000030E246E00C01EF001C01FF0DEEC1DF036
:102290001EC000F01FC001F0300E0024E66E27ECD7
:1022A0000CF0E552FA0EDBCF00F0FB0EDBCF01F0B5
:1022B000E80E236E030E246E00C01EF001C01FF056
:1022C000DEEC1DF01AC000F01BC001F0640E236E9E
:1022D000246A00C01EF001C01FF0DEEC1DF01EC01D
:1022E00000F01FC001F0300E0024E66E27EC0CF069
:1022F000E552FA0EDBCF00F0FB0EDBCF01F0640EEF
:10230000236E246A00C01EF001C01FF0DEEC1DF039
:102310001AC000F01BC001F00A0E236E246A00C030
:102320001EF001C01FF0DEEC1DF01EC000F01FC04B
:1023300001F0300E0024E66E27EC0CF0E552FA0EA8
:10234000DBCF00F0FB0EDBCF01F00A0E236E246A18
:1023500000C01EF001C01FF0DEEC1DF01AC000F03E
:102360001BC001F0300E0024E66E27EC0CF0E552A5
:102370005DD1FA0EDBCF00F0FB0EDBCF01F0E80EF3
:10238000236E030E246E00C01EF001C01FF0DEECB1
:102390001DF01EC000F01FC001F00050011001E14F
:1023A00081D0FA0EDBCF00F0FB0EDBCF01F0E80EA0
:1023B000236E030E246E00C01EF001C01FF0DEEC81
:1023C0001DF01EC000F01FC001F0300E0024E66EAC
:1023D00027EC0CF0E552FA0EDBCF00F0FB0EDBCF62
:1023E00001F0E80E236E030E246E00C01EF001C043
:1023F0001FF0DEEC1DF01AC000F01BC001F0640EEF
:10240000236E246A00C01EF001C01FF0DEEC1DF038
:102410001EC000F01FC001F0300E0024E66E27EC55
:102420000CF0E552FA0EDBCF00F0FB0EDBCF01F033
:10243000640E236E246A00C01EF001C01FF0DEECA3
:102440001DF01AC000F01BC001F00A0E236E246AB2
:1024500000C01EF001C01FF0DEEC1DF01EC000F039
:102460001FC001F0300E0024E66E27EC0CF0E552A0
:10247000FA0EDBCF00F0FB0EDBCF01F00A0E236E6D
:10248000246A00C01EF001C01FF0DEEC1DF01AC06F
:1024900000F01BC001F0300E0024E66E27EC0CF0BB
:1024A000E552C4D0FA0EDBCF00F0FB0EDBCF01F01B
:1024B000640E236E246A00C01EF001C01FF0DEEC23
:1024C0001DF01EC000F01FC001F00050011059E0C7
:1024D000FA0EDBCF00F0FB0EDBCF01F0640E236EB3
:1024E000246A00C01EF001C01FF0DEEC1DF01EC00B
:1024F00000F01FC001F0300E0024E66E27EC0CF057
:10250000E552FA0EDBCF00F0FB0EDBCF01F0640EDC
:10251000236E246A00C01EF001C01FF0DEEC1DF027
:102520001AC000F01BC001F00A0E236E246A00C01E
:102530001EF001C01FF0DEEC1DF01EC000F01FC039
:1025400001F0300E0024E66E27EC0CF0E552FA0E96
:10255000DBCF00F0FB0EDBCF01F00A0E236E246A06
:1025600000C01EF001C01FF0DEEC1DF01AC000F02C
:102570001BC001F0300E0024E66E27EC0CF0E55293
:1025800055D0FA0EDBCF00F0FB0EDBCF01F00A0EC8
:10259000236E246A00C01EF001C01FF0DEEC1DF0A7
:1025A0001EC000F01FC001F00050011033E0FA0E11
:1025B000DBCF00F0FB0EDBCF01F00A0E236E246AA6
:1025C00000C01EF001C01FF0DEEC1DF01EC000F0C8
:1025D0001FC001F0300E0024E66E27EC0CF0E5522F
:1025E000FA0EDBCF00F0FB0EDBCF01F00A0E236EFC
:1025F000246A00C01EF001C01FF0DEEC1DF01AC0FE
:1026000000F01BC001F0300E0024E66E27EC0CF049
:10261000E5520CD0FA0EDBCF00F0FB0EDBCF01F061
:10262000300E0024E66E27EC0CF0E5520D0EE66E3F
:1026300027EC0CF0E5520A0EE66E27EC0CF0E552A2
:10264000320EE66EBEEC20F0E552DF6A320EE66E28
:10265000BEEC20F0E55200019251200B15E19251A1
:10266000100B12E19251080B0FE1DF6AD9CFE6FFA0
:10267000DACFE6FF29EC1FF0E552E552320EE66EA6
:10268000BEEC20F0E552E7D7E552E552E7CFD9FF9F
:102690001200E668080EE66E010EE66E51EC0CF0D4
:0A26A000E552E552E55200D01200A9
:0626AA00D9CFE6FFE1CFED
:1026B000D9FF93949386A36AA46A3F0E6F1480098E
:1026C0006F6EE00E6E14800801E0FBD7FE0EDB504B
:1026D000706EFD0EDB50716EFC0EDB50726E040EE0
:1026E000606E0F01506B016B006B056B046B096B27
:1026F000086B0D6B0C6B116B106B156B146B1B6BFC
:102700001A6B080E196F186B1F6B1E6B1D6F1C6BFD
:10271000200E736EA5681F0E6F146F6EE00E6E14A0
:1027200001E0FCD7030EA36E180EA46E000E00D0BD
:10273000E552E7CFD9FF1200D9CFE6FFE1CFD9FFAD
:10274000E652A450A31460E06F50DF6EA450010B5A
:102750000AE0A350010B07E0A490F00E6F140C09DF
:102760006F6E57D84FD0A450020B0AE0A350020B53
:1027700007E0A492F00E6F140A096F6E4AD842D097
:10278000A450040B0EE0A350040B0BE0F00E6F14EA
:1027900008096F6E84D8000902E0A39401D0A494C4
:1027A00031D0A450080B0EE0A350080B0BE0F00E44
:1027B0006F1406096F6E73D8000902E0A39601D06A
:1027C000A49620D0A450100B0EE0A350100B0BE0E9
:1027D000F00E6F1404096F6E62D8000902E0A3982E
:1027E00001D0A4980FD0A450200B05E0A350200BDB
:1027F00002E0A49A07D0A450400B04E0A350400B81
:1028000001E0A49CDF506F6EE552E552E7CFD9FF9F
:102810001200D9CFE6FFE1CFD9FFE6520001C42B69
:10282000050EE76EC419E8AE02D0E73402D0E750D7
:10283000C45D01E3C46BDF6A0E0EDF5C2AE2DF5089
:10284000EA6A600FE96E0F0EEA22EF50E66EC4C02E
:10285000E9FFEA6AE9BEEA680E0EEA02F3CFEAFF90
:10286000E902F3CFE9FFF450EA26000EE926010E53
:10287000EA22E9CF00F0EACF01F0DF500F01002497
:10288000E96E000E0120EA6EE552E750EF6EDF2A96
:10289000D3D7609EE552E552E7CFD9FF1200D9CFDA
:1028A000E6FFE1CFD9FFE6520001C551C65D3EE02B
:1028B000C52B0A0EE76EC519E8AE02D0E73402D088
:1028C000E750C55D01E3C56BDF6A0E0EDF5C2AE2EF
:1028D000C5C0E9FFEA6AE9BEEA680E0EEA02F3CF74
:1028E000EAFFE902F3CFE9FFF450EA26460EE926B3
:1028F000010EEA22E9CF00F0EACF01F0DF500F012C
:102900000024E96E000E0120EA6EEF50E66EDF5003
:10291000EA6A600FE96E0F0EEA22E552E750EF6EA9
:10292000DF2AD3D76086000E03D002D0010E00D07C
:10293000E552E552E7CFD9FF1200D9CFE6FFE1CF4C
:10294000D9FF020EE1260001C505C65D05E0090EAE
:10295000C65D04E1C55102E1010EDED1090EE76E4C
:10296000C619E8AE02D0E73402D0E750C65D02E3F4
:10297000DF6A02D0C629DF6EFC0EDB50080805E2D4
:10298000080EF36EFC0EF3CFDBFFDF500E0DF3CF1E
:10299000E9FFF4CFEAFF460EE926010EEA22050E12
:1029A000E926000EEA22FC0EDBCFEFFFD950F00F34
:1029B000E96EFF0EDA20EA6E0E0EE926000EEA221C
:1029C000EF50020B4AE1DF500E0DF3CFE9FFF4CFD9
:1029D000EAFF460EE926010EEA22050EE926000E60
:1029E000EA22EF9C010EDB6AFC0EDB50F36E010E57
:1029F000DBCFF4FFF350F45C2FE2D950F40F026EFA
:102A0000FF0EDA20036E010EDB500F010224E96E87
:102A1000000E0320EA6EEF50E66EDF500E0DF3CF8E
:102A2000E9FFF4CFEAFF460EE926010EEA22060E80
:102A3000E926000EEA22E9CF00F0EACF01F0010E0C
:102A4000DB500024E96E000E0120EA6EE552E750EB
:102A5000EF6E010EDB2AC8D70FD0DF500E0DF3CF7B
:102A6000E9FFF4CFEAFF460EE926010EEA22050E41
:102A7000E926000EEA22EF8CD950F00FE96EFF0E26
:102A8000DA20EA6E0E0EE926000EEA22EF50010B64
:102A900001E1C7D0F00EDBCF00F0F10EDBCF01F08B
:102AA000F20EDBCF02F0F30EDBCF03F00050E66E48
:102AB000DF500E0DF3CFE9FFF4CFEAFF460EE92613
:102AC000010EEA22040EE926000EEA22E552E75042
:102AD000EF6EF00EDBCF00F0F10EDBCF01F0F20E67
:102AE000DBCF02F0F30EDBCF03F0080ED8900332F9
:102AF000023201320032E806F9E10050E66EDF50A2
:102B00000E0DF3CFE9FFF4CFEAFF460EE926010EE2
:102B1000EA22030EE926000EEA22E552E750EF6EA4
:102B2000F00EDBCF08F0F10EDBCF09F0F20EDBCFB9
:102B30000AF0F30EDBCF0BF00D0ED8900B320A32F9
:102B400009320832E806F9E1E00E0C6E0D6A0E6AF1
:102B50000F6A0C5008160D5009160E500A160F5029
:102B60000B16F00EDBCF04F0F10EDBCF05F0F20E0A
:102B7000DBCF06F0F30EDBCF07F006C000F007C096
:102B800001F00001026A036A030E0016016A026A7C
:102B9000036A00500810E66EDF500E0DF3CFE9FF18
:102BA000F4CFEAFF460EE926010EEA22020EE926DC
:102BB000000EEA22E552E750EF6EF00EDBCF00F098
:102BC000F10EDBCF01F0F20EDBCF02F0F30EDBCF24
:102BD00003F0150ED8900332023201320032E806BB
:102BE000F9E10050E66EDF500E0DF3CFE9FFF4CFB0
:102BF000EAFF460EE926010EEA22EE52E552E750C0
:102C0000EF6EDF500E0DF3CFE9FFF4CFEAFF460E73
:102C1000E926010EEA22020EE926000EEA22EF86DC
:102C20005CD0F00EDBCF00F0F10EDBCF01F0F20E46
:102C3000DBCF02F0F30EDBCF03F0050E1F0B07E036
:102C4000D8900036013602360336E806F9E1005026
:102C5000E66EDF500E0DF3CFE9FFF4CFEAFF460E2C
:102C6000E926010EEA22020EE926000EEA22E552CA
:102C7000E750EF6EF00EDBCF00F0F10EDBCF01F08E
:102C8000F20EDBCF02F0F30EDBCF03F0030ED89091
:102C90000332023201320032E806F9E10050E66EFA
:102CA000DF500E0DF3CFE9FFF4CFEAFF460EE92621
:102CB000010EEA22EE52E552E750EF6EDF500E0DA4
:102CC000F3CFE9FFF4CFEAFF460EE926010EEA2230
:102CD000020EE926000EEA22EF96FD0EDB50030BF2
:102CE000E66EDF500E0DF3CFE9FFF4CFEAFF460E9C
:102CF000E926010EEA22E552E750EF6EDFCFC6F07B
:102D0000A3B402D0A38406D0A3B602D0A38602D077
:102D1000A3A8A388000E00D0006E020EE15C02E2C0
:102D2000E16AE552E16E0050E552E7CFD9FF1200AB
:102D30000001C351C45D03E0010E03D002D0000EB8
:102D400000D01200D9CFE6FFE1CFD9FF110EE12666
:102D5000040E0001E76EC319E8AE02D0E73402D0DA
:102D6000E750C35D03E30F0EDB6A05D0C329E76EAE
:102D70000F0EE7CFDBFFDB500E0DF3CFE9FFF4CFF3
:102D8000EAFF000EE926010EEA22050EE926000EF2
:102D9000EA22EF500F0BE76E0C0EE7CFDBFF0F0EB2
:102DA000DB500E0DF3CFE9FFF4CFEAFF000EE9266A
:102DB000010EEA22EF50080B03E00E0EDB823CD03E
:102DC0000E0EDB92100EDB6A0C0EDB50F36E100E53
:102DD000DBCFF4FFF350F45C2FE20F0EDB500E0D4F
:102DE000F3CFE9FFF4CFEAFF000EE926010EEA2255
:102DF000060EE926000EEA22E9CF02F0EACF03F040
:102E0000100EDB500F010224E96E000E0320EA6E63
:102E1000EF50E66ED950040F006EDACF01F0100EBD
:102E2000DB500024E96E000E0120EA6EE552E75007
:102E3000EF6E100EDB2AC8D7F00E6F146F6E0F0EF8
:102E4000DB500E0DF3CFE9FFF4CFEAFF000EE926C9
:102E5000010EEA22EE52EF50006E016A030ED89086
:102E600000360136E804FBE1000E00C0DFFF010E72
:102E700001C0DBFF020EDB6A030EDB6A0F0EDB50C4
:102E80000E0DF3CFE9FFF4CFEAFF000EE926010EA5
:102E9000EA22020EE926000EEA22EF50E00BE838A3
:102EA000E840006E016A026A036A0050DE120150B7
:102EB000DE120250DE120350DD12DD52DD520F0E23
:102EC000DB500E0DF3CFE9FFF4CFEAFF000EE92649
:102ED000010EEA22020EE926000EEA22EF50080B4C
:102EE00001E1A0D00E0EDB80D9CFE9FFDACFEAFFF7
:102EF000EECF00F0EECF01F0EECF02F0EFCF03F017
:102F0000020E1F0B07E0D89000360136023603365A
:102F1000E806F9E10F0EDB500E0DF3CFE9FFF4CF19
:102F2000EAFF000EE926010EEA22020EE926000E53
:102F3000EA22EF50030B046E056A066A076A045022
:102F4000001205500112065002120750031200C071
:102F5000DFFF010E01C0DBFF020E02C0DBFF030E2C
:102F600003C0DBFFD9CFE9FFDACFEAFFEECF00F0F5
:102F7000EECF01F0EECF02F0EFCF03F0100E1F0BFB
:102F800007E0D8900036013602360336E806F9E14C
:102F900000C0DFFF010E01C0DBFF020E02C0DBFF3D
:102FA000030E03C0DBFF0F0EDB500E0DF3CFE9FF66
:102FB000F4CFEAFF000EE926010EEA22030EE9260D
:102FC000000EEA22EFCF00F000C001F0006A026AB2
:102FD000036A0050DE120150DE120250DE1203506E
:102FE000DD12DD52DD520F0EDB500E0DF3CFE9FF87
:102FF000F4CFEAFF000EE926010EEA22040EE926CC
:10300000000EEA22EFCF00F0016A026A036A005064
:10301000DE120150DE120250DE120350DD12DD52CC
:10302000DD5202D00E0EDB900F0EDBCFC3F0D9CFF6
:10303000E9FFDACFEAFFEECF00F0EECF01F0EECFFE
:1030400002F0EECF03F0EECF04F0EECF05F0EECFBE
:1030500006F0EECF07F0EECF08F0EECF09F0EECF9E
:103060000AF0EECF0BF0EECF0CF0EECF0DF0EFCF7D
:103070000EF0D9CFE9FFDACFEAFFED50ED500EC0E8
:10308000EDFF0DC0EDFF0CC0EDFF0BC0EDFF0AC062
:10309000EDFF09C0EDFF08C0EDFF07C0EDFF06C062
:1030A000EDFF05C0EDFF04C0EDFF03C0EDFF02C062
:1030B000EDFF01C0EDFF00C0EFFF110EE15C03E288
:1030C00000D0E16AE552E16EE552E7CFD9FF120088
:1030D000D9CFE6FFE1CFD9FF1F0E6F14006EFE0EB1
:1030E000DB50E00B00106F6EE00E6E14006EFE0EF3
:1030F000DB50E00B005C01E0F7D7E552E7CFD9FFEA
:023100001200BB
:0E310200DACFE4FFE2CFDAFFE9CFE4FFEACF55
:10311000E4FFF6CFE4FFF7CFE4FFF5CFE4FFF3CF12
:10312000E4FFF4CFE4FFFACFE4FF00EE16F0140E54
:10313000E80403E3EECFE4FFFBD700EE00F0160E49
:10314000E80403E3EECFE4FFFBD7E6529CEC13F078
:10315000E55200EE15F0160EE80403E3E5CFEDFFAF
:10316000FBD700EE29F0140EE80403E3E5CFEDFFF2
:10317000FBD7E5CFFAFFE5CFF4FFE5CFF3FFE5CFCF
:10318000F5FFE5CFF7FFE5CFF6FFE5CFEAFFE5CFA7
:10319000E9FFE5CFDAFF1100D8CFE4FFE0CFE4FF8D
:1031A000E46EDACFE4FFE2CFDAFFE9CFE4FFEACF63
:1031B000E4FFF6CFE4FFF7CFE4FFF5CFE4FFF3CF72
:1031C000E4FFF4CFE4FFFACFE4FF00EE16F0140EB4
:1031D000E80403E3EECFE4FFFBD700EE00F0160EA9
:1031E000E80403E3EECFE4FFFBD7E65259EC1FF00F
:1031F000E55200EE15F0160EE80403E3E5CFEDFF0F
:10320000FBD700EE29F0140EE80403E3E5CFEDFF51
:10321000FBD7E5CFFAFFE5CFF4FFE5CFF3FFE5CF2E
:10322000F5FFE5CFF7FFE5CFF6FFE5CFEAFFE5CF06
:10323000E9FFE5CFDAFFE550E5CFE0FFE5CFD8FFC6
:1032400010000F0EC112CF0EC116070E9212DF0E24
:10325000936E8A6AF26A9D6AA06AA36A0101FB6B97
:10326000090EFB5D09E2FB51EA6AF20FE96E010EFD
:10327000EA22EF6AFB2BF4D7F06BF16B010EE66EDE
:10328000BC0EE66E090EE66E55EC13F0E552E55203
:10329000E552DEEC1EF0020EE66E1CEC00F0E5528C
:1032A000040EE66E010EE66EF4EC00F0E552E55217
:1032B000FEEC04F0D08EF28EF28C000EE66EE66A22
:1032C000040EE66EE66A010EE66EBEEC02F0006EDB
:1032D000050EE15E0050000EE66EE66A010EE66E37
:1032E000E66AE66ABEEC02F0006E050EE15E005092
:1032F00007EC0EF0E66EE66A010EE66EE66AE66A36
:10330000BEEC02F0006E050EE15E005098EC16F087
:10331000000949E00F0EE126A2EC16F0EECFD2F143
:10332000EECFD3F1EECFD4F1EECFD5F1EECFD6F193
:10333000EECFD7F1EECFD8F1EECFD9F1EECFDAF173
:10334000EECFDBF1EECFDCF1EECFDDF1EECFDEF153
:10335000EECFDFF1EECFE0F1006E0F0EE15E005038
:10336000D2C1E6FFD3C1E6FFD4C1E6FFD5C1E6FF77
:10337000D6C1E6FFD7C1E6FFD8C1E6FFD9C1E6FF57
:10338000DAC1E6FFDBC1E6FFDCC1E6FFDDC1E6FF37
:10339000DEC1E6FFDFC1E6FFE0C1E6FFE1D8006E77
:1033A0000F0EE15E005049EC13F0F3CF00F0F4CFC4
:1033B00001F01E0ED8800054000E015403E28A8AE8
:1033C000BCD901D08A9A81A8B8D98050010B09E1F3
:1033D0000101F25106E1F15102E1D1D901D0ADD99B
:1033E00015D08050020B08E10101F35105E1010EF7
:1033F000E66E43DAE5520AD08050040B07E1010182
:10340000F45104E1010EE66E9CDAE5520101FB6B1A
:10341000090EFB5D12E2FB51EA6AF20FE96E010E42
:10342000EA22EF50000807E2FB51EA6AF20FE96E68
:10343000010EEA22EF06FB2BEBD7320EE66E83EC91
:1034400020F0E55255EC1FF0000802E2DEEC1EF021
:103450004FD71200D9CFE6FFE1CFD9FF040EE12606
:10346000DF6AD950FC0F006EFF0EDA20016E020EEB
:1034700000C0DBFF030E01C0DBFFFC0EDB50E76E7C
:10348000010EE7CFDBFFDB50080803E2DE52080E37
:10349000DD6E010EDB50D880DF5420E3020EDBCF5F
:1034A00000F0030EDBCF01F00006000E015A020E01
:1034B00000C0DBFF030E01C0DBFF00C0E9FF01C05D
:1034C000EAFFEF50E66EDF50DF2AEA6AE50FE96EA9
:1034D000010EEA22E552E750EF6EDBD7FD0EDBCF9F
:1034E000E1F1FE0EDBCFE2F10101E36BE46BEF9360
:1034F000EF91EE6B010EDBCFEDF1DF6AE1C1E6FF8C
:10350000E2C1E6FFE3C1E6FFE4C1E6FFE5C1E6FF95
:10351000E6C1E6FFE7C1E6FFE8C1E6FFE9C1E6FF75
:10352000EAC1E6FFEBC1E6FFECC1E6FFEDC1E6FF55
:10353000EEC1E6FFEFC1E6FF9DEC14F0006E0F0E4A
:10354000E15E0050000902E001D0D8D7040EE15C32
:1035500002E2E16AE552E16EE552E7CFD9FF1200DF
:10356000D9CFE6FFE1CFD9FFF00EDBCF1DF0F10E92
:10357000DBCF1EF0F20EDBCF1FF0F30EDBCF20F01F
:103580002B0E1D1806E1020E1E1803E11F5001E16B
:10359000205001E196D0230E1D1806E1010E1E18E1
:1035A00003E11F5001E1205001E180D0220E1D18DF
:1035B00006E1010E1E1803E11F5001E1205001E059
:1035C00088D0F40EDBCF0AF00AC00BF00A6AF50EC1
:1035D000DB5000010A10086E0BC009F0390E085EBE
:1035E000030E095A08C01EF009C01FF009EC1DF0B7
:1035F0001DC004F01EC005F01FC006F020C007F07B
:10360000226A236A4D0E246E430E256E04C01DF0FF
:1036100005C01EF006C01FF007C020F01EEC1DF014
:103620001DC000F01EC001F01FC002F020C003F05A
:10363000226A236AC00E246E410E256E00C01DF062
:1036400001C01EF002C01FF003C020F071EC1DF09D
:1036500031EC1EF01F50E66E83EC04F0E552F60EDE
:10366000DBCF02F002C003F0026AF70EDB5000016C
:103670000210006E03C001F000C0E6FF01C0E6FFCB
:10368000040EE66EE66A010EE66EBEEC02F0046E13
:10369000050EE15E0450FA0EDB407F0B010BE66E77
:1036A000060EE66E1AD8E552E55213D0FA0EDB404C
:1036B0007F0B010BE66E050EE66E0FD8E552E55264
:1036C00008D0FA0EE66EE66A89EC0EF0E552E55295
:1036D00000D0E552E7CFD9FF1200D9CFE6FFE1CF06
:1036E000D9FFFD0EDB500DE0010EF36EFE0EDB5038
:1036F00004E0D890F336E806FCE1F3500101F01342
:103700000DD0010EF36EFE0EDB5004E0D890F336C0
:10371000E806FCE1F350E81C0101F017F0C1E6FFF8
:10372000060EE66E010EE66EB8EC00F0E552E552CC
:10373000E552E552E7CFD9FF1200E66A040EE66EC5
:10374000CCDFE552E552E66A030EE66EE66AB8ECB7
:1037500000F0E552E552E552E66A040EE66EE66ACE
:10376000B8EC00F0E552E552E552840EE66EE66AEA
:1037700089EC0EF0E552E5520101F16B1200FDEC0F
:103780000DF0F3CFFCF1F4CFFDF10101FD3504E2C2
:10379000FC510F08010EFD556EE2F1516CE1010E76
:1037A000E66E040EE66E99DFE552E552F30EE66E24
:1037B000E66A89EC0EF0E552E552FF0EE66EE66A27
:1037C000E668390EE66E030EE66EB4EC0FF0006E9E
:1037D000050EE15E0050FCC1E6FFFDC1E6FFE668B4
:1037E000010EE66EE66AB4EC0FF0006E050EE15EC7
:1037F0000050820EE66EE66A89EC0EF0E552E55264
:10380000F20EE66EE66A89EC0EF0E552E552010131
:10381000010EF16FFCC11EF0FDC11FF00BEC1DF09D
:103820001DC000F01EC001F01FC002F020C003F058
:10383000480E226E6D0E236E620E246E3D0E256EB6
:1038400000C01DF001C01EF002C01FF003C020F038
:1038500071EC1DF031EC1EF01F50E66EE66A030EAF
:10386000E66E020EE66EE66ABEEC02F0046E050E2F
:10387000E15E045001D061DF1200D9CFE6FFE1CF55
:10388000D9FFFE0EDB50120DF3500101016AFC2539
:10389000006EFD510122D890015004E6720E005CCA
:1038A000060E01584AE2F10548E1FE0EDB50120D0A
:1038B000F350006E016A0050FC270150FD23FCC14B
:1038C000E6FFFDC1E6FFE668010EE66EE66AB4ECCF
:1038D0000FF0006E050EE15E0050FCC11EF0FDC150
:1038E0001FF00BEC1DF01DC000F01EC001F01FC04A
:1038F00002F020C003F0480E226E6D0E236E620EA1
:10390000246E3D0E256E00C01DF001C01EF002C0E9
:103910001FF003C020F071EC1DF031EC1EF01F50C1
:10392000E66EE66A030EE66E020EE66EE66ABEEC30
:1039300002F0046E050EE15E0450E552E7CFD9FFB8
:103940001200D9CFE6FFE1CFD9FFFE0EDB50120DFA
:10395000F350026E036A01010250FC5D006E0350D9
:10396000FD59016E013404E200500F08010E0154AC
:103970004BE2F10549E1FE0EDB50120DF350006EF3
:10398000016A0050FC5F0150FD5BFCC1E6FFFDC118
:10399000E6FFE668010EE66EE66AB4EC0FF0006E34
:1039A000050EE15E0050FCC11EF0FDC11FF00BECE6
:1039B0001DF01DC000F01EC001F01FC002F020C0AD
:1039C00003F0480E226E6D0E236E620E246E3D0EC5
:1039D000256E00C01DF001C01EF002C01FF003C024
:1039E00020F071EC1DF031EC1EF01F50E66EE66A1F
:1039F000030EE66E020EE66EE66ABEEC02F0046EA0
:103A0000050EE15E045001D098DEE552E7CFD9FF04
:023A10001200A2
:0E3A1200179E08D0179E1FAE05D01E6C1F1EFB
:103A2000E86A1F22178E1FC019F01EC018F0296AFD
:103A3000286A8E0E1A6E1B6A74EF1EF0176AB0ECBD
:103A40001EF0C8EC1EF017B658EF1EF017A205D0F6
:103A500017BA58EF1EF05FEF1EF017BA6BEF1EF0AB
:103A600017A005D017B858EF1EF06BEF1EF017B86F
:103A70005FEF1EF01B6A7F0E20241A6EE86A1B227D
:103A800025501A5EE86A1B5A1A0E266E206A286AAA
:103A9000296A186A196A22501D5E23501E5A245042
:103AA0001F5A000E205A09E722501D2623501E22BD
:103AB00024501F22000E202201D0288AD8901D36C3
:103AC0001E361F362036D890283629361836193635
:103AD000262EE1D71F501E101D10D8A4288A74EF7F
:103AE0001EF0176AB0EC1EF0C8EC1EF017B658EFC7
:103AF0001EF017A205D017B858EF1EF05FEF1EF0AA
:103B000017AA05D017B058EF1EF05FEF1EF017B0E0
:103B100002D017A802D06BEF1EF01B6A255020249C
:103B20001A6EE86A1B227E0E1A5EE86A1B5A286A21
:103B3000296A186A196A24501F02F4CF19F0F3CFCA
:103B400018F023501F02F3502926F4501822000EBB
:103B5000192224501E02F3502926F4501822000E78
:103B6000192222501F02F3502826F4502922000E59
:103B70001822192223501E02F3502826F45029221D
:103B8000000E1822192224501D02F3502826F4504A
:103B90002922000E1822192222501E02F450282633
:103BA000000E29221822192223501D02F450282623
:103BB000000E29221822192274EF1EF0166A24AE74
:103BC000E7EF1DF0236C241EE86A2422161E1FAEA8
:103BD000EFEF1DF01E6C1F1EE86A1F22161E9AECE6
:103BE00020F01FBEFFEF1DF016AE000C1E6C1F1E56
:103BF000E86A1F221A6C1B1EE86A1B22000C16BE04
:103C0000F6EF1DF01788FF0C1FC029F01EC028F02A
:103C10001E502302F4CF1DF0F3CF1CF01F502402DE
:103C2000F4CF1FF0F3CF1EF02302F3501D26F45003
:103C30001E22E86A1F2228502402F3501D26F45049
:103C40001E22E86A1F2224AE2AEF1EF028501E5EB4
:103C500029501F5A29AE000C23501E5E24501F5AB3
:103C6000000C176AB0EC1EF017B63BEF1EF017A25F
:103C70000AD017B403D07F0E1F6E19D0800E1F6EAE
:103C800016D01F6A14D017B0FCD7870E2060F1D76A
:103C90007E0E2064F6D7860E205C04E0D8901F329A
:103CA000202AF9D717A403D01F6C1FAEEAD7120041
:103CB0007F0E206EFF0E1F6E1E6E1D6E12007F0E99
:103CC00017BEFF0E206E02D07F0E206E800E1F6E7C
:103CD0001E6A1D6AF3D717AE04D0800E206E1F6ACD
:103CE000F7D7206A1F6AF4D7195018102910281026
:103CF000F8E01BBEF0D719BE0CD01A501B10EBE039
:103D0000D89028362936183619361A06D8A01B0638
:103D1000F2D71B50D4E11A28D2E028AE11D07F0E82
:103D2000281402E129A00CD0292AE86A18221922B5
:103D300007E3D8801932183229321A2A1A28BFE02C
:103D40001A50C9E029C01DF018C01EF019341F6EAA
:103D50001A30206E1F32209E17BE208E5EEF1EF09E
:103D60001F36203602E31784177E06E11780206A8B
:103D70001F6A1E6A1D6A1200202803E0D8801F32C5
:103D80001200D8901F3202E117821200178612002B
:103D90002436253602E3178C177E06E11788256A3C
:103DA000246A236A226A1200252803E0D88024327C
:0C3DB0001200D8902432EAE1178A1200B9
:043DBC0000019291DF
:103DC0009283A36BA46BA56B92959287929B929919
:103DD000B66BB76BB86B810EAF6EAC84949C948E4F
:103DE0009F989F9AAC8AAB88AB8E9D889D8A120063
:103DF000D9CFE6FFE1CFD9FF000192A102D0000E9A
:103E000018D09D98A451EA6A930FE96E000EEA2239
:103E1000FE0EDBCFEFFF9293A32B100EA35D01E10B
:103E20009281A42B100EA45D01E1A46B9D88010E6C
:103E300000D0E552E7CFD9FF1200100E0001A35DBC
:103E400005E2100ED880A35503D002D0000E00D09A
:103E50001200D9CFE6FFE1CFD9FF000192A702D02F
:103E6000000E1FD09D9A9295B851EA6AA60FE96E8E
:103E7000000EEA22EF50E66EFD0EDBCFE9FFFE0EEC
:103E8000DBCFEAFFE552E750EF6EB607B65101E12E
:103E90009287B82B100EB85D01E1B86B9D8A010EB8
:103EA00000D0E552E7CFD9FF12000001B65100D093
:103EB0001200D9CFE6FFE1CFD9FFE6529D50100B9B
:103EC00001E0010E006E9E50100B01E0010E001487
:103ED00019E0000192B314D0A551EA6A930FE96E7C
:103EE000000EEA22EF50AD6E92B19291A307A3515A
:103EF00001E19283A52B100EA55D01E1A56B01D018
:103F00009D9838D09D50200B01E0010E006E9E5010
:103F1000200B01E0010E00142DE0ABA405D0AE5043
:103F2000DF6E0001928B26D0ABA207D0AB98AB8896
:103F3000AE50DF6E0001928B1DD0000192A504D01F
:103F4000AE50DF6E928916D092B514D092999297A6
:103F5000B751EA6AA60FE96E000EEA22AECFEFFF74
:103F6000B62B100EB65D01E19285B72B100EB75D32
:0E3F700001E1B76BE552E552E7CFD9FF120031
:023F7E001E0E15
:103F8000F66E000EF76E000EF86E00010900F55097
:103F9000BE6F0900F550BF6F03E1BE6701D03DD091
:103FA0000900F550B96F0900F550BA6F0900F550D6
:103FB000BB6F09000900F550E96E0900F550EA6E83
:103FC000090009000900F550BC6F0900F550BD6FEC
:103FD00009000900F6CFC0F0F7CFC1F0F8CFC2F06A
:103FE000B9C0F6FFBAC0F7FFBBC0F8FF0001BC5371
:103FF00002E1BD5307E00900F550EE6EBC07F8E2A0
:10400000BD07F9D7C0C0F6FFC1C0F7FFC2C0F8FFB7
:0C4010000001BE07000EBF5BBFD712000E
:04401C00D9CFE6FF13
:10402000DACFE6FFE1CFD9FFE2CFDAFF3F0EC716C6
:10403000C66AFD0EDB50C612FB0EDB50C712FC0E2B
:10404000DB50030A09E0010A04E0020A06E1C78C1A
:1040500004D0C78CC68801D0C688FD0EDB50050A87
:1040600005E0010A05E19486928A03D0948601D086
:1040700094969488949AC68AE552E5CFDAFFE7CF02
:04408000D9FF120052
:0C4084001B6A1A6A196A186A200EE76E9F
:10409000D8901C361D361E361F36183619361A367D
:1040A0001B362150185C2250195823501A5824509E
:1040B0001B5809E32150185E2250195A23501A5AEE
:0C40C00024501B5A1C2AE72EE4D71200E3
:0440CC00D9CFE6FF63
:1040D000DACFE6FFE1CFD9FFE2CFDAFFE652C950EF
:1040E000DF6E9E96FD0EDB50C96EC6AE02D0FF0E8F
:1040F00003D09EA6FED7000EE552E552E5CFDAFFCB
:06410000E7CFD9FF120019
:0A410600FF0EE3502B6EEF0E01D008
:10411000F30EE76EE72E8AEF20F00C0E2A6EE76AA8
:10412000E72E90EF20F02A2E8FEF20F02B2E88EF35
:0441300020F0120069
:0C4134001B6A1A6A100EE76ED8901E3647
:104140001F361A361B3623501A5C24501B5805E3C1
:1041500023501A5E24501B5A1E2AE72EF0D7120055
:1041600015EE00F025EE00F0F86A179CBFEC1FF08A
:0C41700003EC00F021EC19F0FBD712006A
:04417C00FF0EE350FF
:104180002B6E1B0E00D001D0200EE76EE72EFED75F
:084190002B2EFAD700D012001B
:0841980000EE00F00D0EEE6ACE
:0641A000EA62FDD71200E7
:0A41A600010000000A0000006400A0
:1041B0000000E803000010270000A0860100404234
:1041C0000F008096980000406070787C7E7FFF0032
:0841D000808183878F9FBFFFF0
:020000040030CA
:0100010006F8
:010003001EDE
:010006008178
:00000001FF
